{
  "contractName": "NFTCollection",
  "abi": [
    {
      "inputs": [],
      "stateMutability": "nonpayable",
      "type": "constructor"
    },
    {
      "anonymous": false,
      "inputs": [
        {
          "indexed": true,
          "internalType": "address",
          "name": "owner",
          "type": "address"
        },
        {
          "indexed": true,
          "internalType": "address",
          "name": "approved",
          "type": "address"
        },
        {
          "indexed": true,
          "internalType": "uint256",
          "name": "tokenId",
          "type": "uint256"
        }
      ],
      "name": "Approval",
      "type": "event"
    },
    {
      "anonymous": false,
      "inputs": [
        {
          "indexed": true,
          "internalType": "address",
          "name": "owner",
          "type": "address"
        },
        {
          "indexed": true,
          "internalType": "address",
          "name": "operator",
          "type": "address"
        },
        {
          "indexed": false,
          "internalType": "bool",
          "name": "approved",
          "type": "bool"
        }
      ],
      "name": "ApprovalForAll",
      "type": "event"
    },
    {
      "anonymous": false,
      "inputs": [
        {
          "indexed": true,
          "internalType": "address",
          "name": "from",
          "type": "address"
        },
        {
          "indexed": true,
          "internalType": "address",
          "name": "to",
          "type": "address"
        },
        {
          "indexed": true,
          "internalType": "uint256",
          "name": "tokenId",
          "type": "uint256"
        }
      ],
      "name": "Transfer",
      "type": "event"
    },
    {
      "inputs": [
        {
          "internalType": "address",
          "name": "to",
          "type": "address"
        },
        {
          "internalType": "uint256",
          "name": "tokenId",
          "type": "uint256"
        }
      ],
      "name": "approve",
      "outputs": [],
      "stateMutability": "nonpayable",
      "type": "function"
    },
    {
      "inputs": [
        {
          "internalType": "address",
          "name": "owner",
          "type": "address"
        }
      ],
      "name": "balanceOf",
      "outputs": [
        {
          "internalType": "uint256",
          "name": "",
          "type": "uint256"
        }
      ],
      "stateMutability": "view",
      "type": "function",
      "constant": true
    },
    {
      "inputs": [
        {
          "internalType": "uint256",
          "name": "tokenId",
          "type": "uint256"
        }
      ],
      "name": "getApproved",
      "outputs": [
        {
          "internalType": "address",
          "name": "",
          "type": "address"
        }
      ],
      "stateMutability": "view",
      "type": "function",
      "constant": true
    },
    {
      "inputs": [
        {
          "internalType": "address",
          "name": "owner",
          "type": "address"
        },
        {
          "internalType": "address",
          "name": "operator",
          "type": "address"
        }
      ],
      "name": "isApprovedForAll",
      "outputs": [
        {
          "internalType": "bool",
          "name": "",
          "type": "bool"
        }
      ],
      "stateMutability": "view",
      "type": "function",
      "constant": true
    },
    {
      "inputs": [],
      "name": "name",
      "outputs": [
        {
          "internalType": "string",
          "name": "",
          "type": "string"
        }
      ],
      "stateMutability": "view",
      "type": "function",
      "constant": true
    },
    {
      "inputs": [
        {
          "internalType": "uint256",
          "name": "tokenId",
          "type": "uint256"
        }
      ],
      "name": "ownerOf",
      "outputs": [
        {
          "internalType": "address",
          "name": "",
          "type": "address"
        }
      ],
      "stateMutability": "view",
      "type": "function",
      "constant": true
    },
    {
      "inputs": [
        {
          "internalType": "address",
          "name": "from",
          "type": "address"
        },
        {
          "internalType": "address",
          "name": "to",
          "type": "address"
        },
        {
          "internalType": "uint256",
          "name": "tokenId",
          "type": "uint256"
        }
      ],
      "name": "safeTransferFrom",
      "outputs": [],
      "stateMutability": "nonpayable",
      "type": "function"
    },
    {
      "inputs": [
        {
          "internalType": "address",
          "name": "from",
          "type": "address"
        },
        {
          "internalType": "address",
          "name": "to",
          "type": "address"
        },
        {
          "internalType": "uint256",
          "name": "tokenId",
          "type": "uint256"
        },
        {
          "internalType": "bytes",
          "name": "_data",
          "type": "bytes"
        }
      ],
      "name": "safeTransferFrom",
      "outputs": [],
      "stateMutability": "nonpayable",
      "type": "function"
    },
    {
      "inputs": [
        {
          "internalType": "address",
          "name": "operator",
          "type": "address"
        },
        {
          "internalType": "bool",
          "name": "approved",
          "type": "bool"
        }
      ],
      "name": "setApprovalForAll",
      "outputs": [],
      "stateMutability": "nonpayable",
      "type": "function"
    },
    {
      "inputs": [],
      "name": "symbol",
      "outputs": [
        {
          "internalType": "string",
          "name": "",
          "type": "string"
        }
      ],
      "stateMutability": "view",
      "type": "function",
      "constant": true
    },
    {
      "inputs": [
        {
          "internalType": "uint256",
          "name": "index",
          "type": "uint256"
        }
      ],
      "name": "tokenByIndex",
      "outputs": [
        {
          "internalType": "uint256",
          "name": "",
          "type": "uint256"
        }
      ],
      "stateMutability": "view",
      "type": "function",
      "constant": true
    },
    {
      "inputs": [
        {
          "internalType": "address",
          "name": "owner",
          "type": "address"
        },
        {
          "internalType": "uint256",
          "name": "index",
          "type": "uint256"
        }
      ],
      "name": "tokenOfOwnerByIndex",
      "outputs": [
        {
          "internalType": "uint256",
          "name": "",
          "type": "uint256"
        }
      ],
      "stateMutability": "view",
      "type": "function",
      "constant": true
    },
    {
      "inputs": [
        {
          "internalType": "uint256",
          "name": "",
          "type": "uint256"
        }
      ],
      "name": "tokenURIs",
      "outputs": [
        {
          "internalType": "string",
          "name": "",
          "type": "string"
        }
      ],
      "stateMutability": "view",
      "type": "function",
      "constant": true
    },
    {
      "inputs": [],
      "name": "totalSupply",
      "outputs": [
        {
          "internalType": "uint256",
          "name": "",
          "type": "uint256"
        }
      ],
      "stateMutability": "view",
      "type": "function",
      "constant": true
    },
    {
      "inputs": [
        {
          "internalType": "address",
          "name": "from",
          "type": "address"
        },
        {
          "internalType": "address",
          "name": "to",
          "type": "address"
        },
        {
          "internalType": "uint256",
          "name": "tokenId",
          "type": "uint256"
        }
      ],
      "name": "transferFrom",
      "outputs": [],
      "stateMutability": "nonpayable",
      "type": "function"
    },
    {
      "inputs": [
        {
          "internalType": "bytes4",
          "name": "interfaceId",
          "type": "bytes4"
        }
      ],
      "name": "supportsInterface",
      "outputs": [
        {
          "internalType": "bool",
          "name": "",
          "type": "bool"
        }
      ],
      "stateMutability": "view",
      "type": "function",
      "constant": true
    },
    {
      "inputs": [
        {
          "internalType": "uint256",
          "name": "tokenId",
          "type": "uint256"
        }
      ],
      "name": "tokenURI",
      "outputs": [
        {
          "internalType": "string",
          "name": "",
          "type": "string"
        }
      ],
      "stateMutability": "view",
      "type": "function",
      "constant": true
    },
    {
      "inputs": [
        {
          "internalType": "string",
          "name": "_tokenURI",
          "type": "string"
        }
      ],
      "name": "safeMint",
      "outputs": [],
      "stateMutability": "nonpayable",
      "type": "function"
    }
  ],
  "bytecode": "0x60806040523480156200001157600080fd5b506040518060400160405280600e81526020017f6d544320436f6c6c656374696f6e0000000000000000000000000000000000008152506040518060400160405280600381526020017f6d54430000000000000000000000000000000000000000000000000000000000815250816000908051906020019062000096929190620000b8565b508060019080519060200190620000af929190620000b8565b505050620001cd565b828054620000c69062000168565b90600052602060002090601f016020900481019282620000ea576000855562000136565b82601f106200010557805160ff191683800117855562000136565b8280016001018555821562000136579182015b828111156200013557825182559160200191906001019062000118565b5b50905062000145919062000149565b5090565b5b80821115620001645760008160009055506001016200014a565b5090565b600060028204905060018216806200018157607f821691505b602082108114156200019857620001976200019e565b5b50919050565b7f4e487b7100000000000000000000000000000000000000000000000000000000600052602260045260246000fd5b612fc880620001dd6000396000f3fe608060405234801561001057600080fd5b50600436106101165760003560e01c80636352211e116100a257806395d89b411161007157806395d89b4114610317578063a22cb46514610335578063b88d4fde14610351578063c87b56dd1461036d578063e985e9c51461039d57610116565b80636352211e1461026b578063695850fb1461029b5780636c8b703f146102b757806370a08231146102e757610116565b806318160ddd116100e957806318160ddd146101b557806323b872dd146101d35780632f745c59146101ef57806342842e0e1461021f5780634f6ccce71461023b57610116565b806301ffc9a71461011b57806306fdde031461014b578063081812fc14610169578063095ea7b314610199575b600080fd5b610135600480360381019061013091906121a2565b6103cd565b60405161014291906129da565b60405180910390f35b6101536103df565b60405161016091906129f5565b60405180910390f35b610183600480360381019061017e9190612235565b610471565b6040516101909190612973565b60405180910390f35b6101b360048036038101906101ae9190612166565b6104f6565b005b6101bd61060e565b6040516101ca9190612c37565b60405180910390f35b6101ed60048036038101906101e89190612060565b61061b565b005b61020960048036038101906102049190612166565b61067b565b6040516102169190612c37565b60405180910390f35b61023960048036038101906102349190612060565b610720565b005b61025560048036038101906102509190612235565b610740565b6040516102629190612c37565b60405180910390f35b61028560048036038101906102809190612235565b6107d7565b6040516102929190612973565b60405180910390f35b6102b560048036038101906102b091906121f4565b610889565b005b6102d160048036038101906102cc9190612235565b6109a8565b6040516102de91906129f5565b60405180910390f35b61030160048036038101906102fc9190611ffb565b610a54565b60405161030e9190612c37565b60405180910390f35b61031f610b0c565b60405161032c91906129f5565b60405180910390f35b61034f600480360381019061034a919061212a565b610b9e565b005b61036b600480360381019061036691906120af565b610bb4565b005b61038760048036038101906103829190612235565b610c16565b60405161039491906129f5565b60405180910390f35b6103b760048036038101906103b29190612024565b610d03565b6040516103c491906129da565b60405180910390f35b60006103d882610d97565b9050919050565b6060600080546103ee90612e66565b80601f016020809104026020016040519081016040528092919081815260200182805461041a90612e66565b80156104675780601f1061043c57610100808354040283529160200191610467565b820191906000526020600020905b81548152906001019060200180831161044a57829003601f168201915b5050505050905090565b600061047c82610e11565b6104bb576040517f08c379a00000000000000000000000000000000000000000000000000000000081526004016104b290612b77565b60405180910390fd5b6004600083815260200190815260200160002060009054906101000a900473ffffffffffffffffffffffffffffffffffffffff169050919050565b6000610501826107d7565b90508073ffffffffffffffffffffffffffffffffffffffff168373ffffffffffffffffffffffffffffffffffffffff161415610572576040517f08c379a000000000000000000000000000000000000000000000000000000000815260040161056990612bd7565b60405180910390fd5b8073ffffffffffffffffffffffffffffffffffffffff16610591610e7d565b73ffffffffffffffffffffffffffffffffffffffff1614806105c057506105bf816105ba610e7d565b610d03565b5b6105ff576040517f08c379a00000000000000000000000000000000000000000000000000000000081526004016105f690612af7565b60405180910390fd5b6106098383610e85565b505050565b6000600880549050905090565b61062c610626610e7d565b82610f3e565b61066b576040517f08c379a000000000000000000000000000000000000000000000000000000000815260040161066290612bf7565b60405180910390fd5b61067683838361101c565b505050565b600061068683610a54565b82106106c7576040517f08c379a00000000000000000000000000000000000000000000000000000000081526004016106be90612a17565b60405180910390fd5b600660008473ffffffffffffffffffffffffffffffffffffffff1673ffffffffffffffffffffffffffffffffffffffff168152602001908152602001600020600083815260200190815260200160002054905092915050565b61073b83838360405180602001604052806000815250610bb4565b505050565b600061074a61060e565b821061078b576040517f08c379a000000000000000000000000000000000000000000000000000000000815260040161078290612c17565b60405180910390fd5b600882815481106107c5577f4e487b7100000000000000000000000000000000000000000000000000000000600052603260045260246000fd5b90600052602060002001549050919050565b6000806002600084815260200190815260200160002060009054906101000a900473ffffffffffffffffffffffffffffffffffffffff169050600073ffffffffffffffffffffffffffffffffffffffff168173ffffffffffffffffffffffffffffffffffffffff161415610880576040517f08c379a000000000000000000000000000000000000000000000000000000000815260040161087790612b37565b60405180910390fd5b80915050919050565b600b81604051610899919061295c565b908152602001604051809103902060009054906101000a900460ff16156108f5576040517f08c379a00000000000000000000000000000000000000000000000000000000081526004016108ec90612ad7565b60405180910390fd5b600a81908060018154018082558091505060019003906000526020600020016000909190919091509080519060200190610930929190611e1f565b506000600a80549050905081600c60008381526020019081526020016000209080519060200190610962929190611e1f565b5061096d3382611278565b6001600b8360405161097f919061295c565b908152602001604051809103902060006101000a81548160ff0219169083151502179055505050565b600a81815481106109b857600080fd5b9060005260206000200160009150905080546109d390612e66565b80601f01602080910402602001604051908101604052809291908181526020018280546109ff90612e66565b8015610a4c5780601f10610a2157610100808354040283529160200191610a4c565b820191906000526020600020905b815481529060010190602001808311610a2f57829003601f168201915b505050505081565b60008073ffffffffffffffffffffffffffffffffffffffff168273ffffffffffffffffffffffffffffffffffffffff161415610ac5576040517f08c379a0000000000000000000000000000000000000000000000000000000008152600401610abc90612b17565b60405180910390fd5b600360008373ffffffffffffffffffffffffffffffffffffffff1673ffffffffffffffffffffffffffffffffffffffff168152602001908152602001600020549050919050565b606060018054610b1b90612e66565b80601f0160208091040260200160405190810160405280929190818152602001828054610b4790612e66565b8015610b945780601f10610b6957610100808354040283529160200191610b94565b820191906000526020600020905b815481529060010190602001808311610b7757829003601f168201915b5050505050905090565b610bb0610ba9610e7d565b8383611296565b5050565b610bc5610bbf610e7d565b83610f3e565b610c04576040517f08c379a0000000000000000000000000000000000000000000000000000000008152600401610bfb90612bf7565b60405180910390fd5b610c1084848484611403565b50505050565b6060610c2182610e11565b610c60576040517f08c379a0000000000000000000000000000000000000000000000000000000008152600401610c5790612bb7565b60405180910390fd5b600c60008381526020019081526020016000208054610c7e90612e66565b80601f0160208091040260200160405190810160405280929190818152602001828054610caa90612e66565b8015610cf75780601f10610ccc57610100808354040283529160200191610cf7565b820191906000526020600020905b815481529060010190602001808311610cda57829003601f168201915b50505050509050919050565b6000600560008473ffffffffffffffffffffffffffffffffffffffff1673ffffffffffffffffffffffffffffffffffffffff16815260200190815260200160002060008373ffffffffffffffffffffffffffffffffffffffff1673ffffffffffffffffffffffffffffffffffffffff16815260200190815260200160002060009054906101000a900460ff16905092915050565b60007f780e9d63000000000000000000000000000000000000000000000000000000007bffffffffffffffffffffffffffffffffffffffffffffffffffffffff1916827bffffffffffffffffffffffffffffffffffffffffffffffffffffffff19161480610e0a5750610e098261145f565b5b9050919050565b60008073ffffffffffffffffffffffffffffffffffffffff166002600084815260200190815260200160002060009054906101000a900473ffffffffffffffffffffffffffffffffffffffff1673ffffffffffffffffffffffffffffffffffffffff1614159050919050565b600033905090565b816004600083815260200190815260200160002060006101000a81548173ffffffffffffffffffffffffffffffffffffffff021916908373ffffffffffffffffffffffffffffffffffffffff160217905550808273ffffffffffffffffffffffffffffffffffffffff16610ef8836107d7565b73ffffffffffffffffffffffffffffffffffffffff167f8c5be1e5ebec7d5bd14f71427d1e84f3dd0314c0f7b2291e5b200ac8c7c3b92560405160405180910390a45050565b6000610f4982610e11565b610f88576040517f08c379a0000000000000000000000000000000000000000000000000000000008152600401610f7f90612ab7565b60405180910390fd5b6000610f93836107d7565b90508073ffffffffffffffffffffffffffffffffffffffff168473ffffffffffffffffffffffffffffffffffffffff16148061100257508373ffffffffffffffffffffffffffffffffffffffff16610fea84610471565b73ffffffffffffffffffffffffffffffffffffffff16145b8061101357506110128185610d03565b5b91505092915050565b8273ffffffffffffffffffffffffffffffffffffffff1661103c826107d7565b73ffffffffffffffffffffffffffffffffffffffff1614611092576040517f08c379a000000000000000000000000000000000000000000000000000000000815260040161108990612b97565b60405180910390fd5b600073ffffffffffffffffffffffffffffffffffffffff168273ffffffffffffffffffffffffffffffffffffffff161415611102576040517f08c379a00000000000000000000000000000000000000000000000000000000081526004016110f990612a77565b60405180910390fd5b61110d838383611541565b611118600082610e85565b6001600360008573ffffffffffffffffffffffffffffffffffffffff1673ffffffffffffffffffffffffffffffffffffffff16815260200190815260200160002060008282546111689190612d7c565b925050819055506001600360008473ffffffffffffffffffffffffffffffffffffffff1673ffffffffffffffffffffffffffffffffffffffff16815260200190815260200160002060008282546111bf9190612d26565b92505081905550816002600083815260200190815260200160002060006101000a81548173ffffffffffffffffffffffffffffffffffffffff021916908373ffffffffffffffffffffffffffffffffffffffff160217905550808273ffffffffffffffffffffffffffffffffffffffff168473ffffffffffffffffffffffffffffffffffffffff167fddf252ad1be2c89b69c2b068fc378daa952ba7f163c4a11628f55a4df523b3ef60405160405180910390a4505050565b611292828260405180602001604052806000815250611551565b5050565b8173ffffffffffffffffffffffffffffffffffffffff168373ffffffffffffffffffffffffffffffffffffffff161415611305576040517f08c379a00000000000000000000000000000000000000000000000000000000081526004016112fc90612a97565b60405180910390fd5b80600560008573ffffffffffffffffffffffffffffffffffffffff1673ffffffffffffffffffffffffffffffffffffffff16815260200190815260200160002060008473ffffffffffffffffffffffffffffffffffffffff1673ffffffffffffffffffffffffffffffffffffffff16815260200190815260200160002060006101000a81548160ff0219169083151502179055508173ffffffffffffffffffffffffffffffffffffffff168373ffffffffffffffffffffffffffffffffffffffff167f17307eab39ab6107e8899845ad3d59bd9653f200f220920489ca2b5937696c31836040516113f691906129da565b60405180910390a3505050565b61140e84848461101c565b61141a848484846115ac565b611459576040517f08c379a000000000000000000000000000000000000000000000000000000000815260040161145090612a37565b60405180910390fd5b50505050565b60007f80ac58cd000000000000000000000000000000000000000000000000000000007bffffffffffffffffffffffffffffffffffffffffffffffffffffffff1916827bffffffffffffffffffffffffffffffffffffffffffffffffffffffff1916148061152a57507f5b5e139f000000000000000000000000000000000000000000000000000000007bffffffffffffffffffffffffffffffffffffffffffffffffffffffff1916827bffffffffffffffffffffffffffffffffffffffffffffffffffffffff1916145b8061153a575061153982611743565b5b9050919050565b61154c8383836117ad565b505050565b61155b83836118c1565b61156860008484846115ac565b6115a7576040517f08c379a000000000000000000000000000000000000000000000000000000000815260040161159e90612a37565b60405180910390fd5b505050565b60006115cd8473ffffffffffffffffffffffffffffffffffffffff16611a8f565b15611736578373ffffffffffffffffffffffffffffffffffffffff1663150b7a026115f6610e7d565b8786866040518563ffffffff1660e01b8152600401611618949392919061298e565b602060405180830381600087803b15801561163257600080fd5b505af192505050801561166357506040513d601f19601f8201168201806040525081019061166091906121cb565b60015b6116e6573d8060008114611693576040519150601f19603f3d011682016040523d82523d6000602084013e611698565b606091505b506000815114156116de576040517f08c379a00000000000000000000000000000000000000000000000000000000081526004016116d590612a37565b60405180910390fd5b805181602001fd5b63150b7a0260e01b7bffffffffffffffffffffffffffffffffffffffffffffffffffffffff1916817bffffffffffffffffffffffffffffffffffffffffffffffffffffffff19161491505061173b565b600190505b949350505050565b60007f01ffc9a7000000000000000000000000000000000000000000000000000000007bffffffffffffffffffffffffffffffffffffffffffffffffffffffff1916827bffffffffffffffffffffffffffffffffffffffffffffffffffffffff1916149050919050565b6117b8838383611aa2565b600073ffffffffffffffffffffffffffffffffffffffff168373ffffffffffffffffffffffffffffffffffffffff1614156117fb576117f681611aa7565b61183a565b8173ffffffffffffffffffffffffffffffffffffffff168373ffffffffffffffffffffffffffffffffffffffff1614611839576118388382611af0565b5b5b600073ffffffffffffffffffffffffffffffffffffffff168273ffffffffffffffffffffffffffffffffffffffff16141561187d5761187881611c5d565b6118bc565b8273ffffffffffffffffffffffffffffffffffffffff168273ffffffffffffffffffffffffffffffffffffffff16146118bb576118ba8282611da0565b5b5b505050565b600073ffffffffffffffffffffffffffffffffffffffff168273ffffffffffffffffffffffffffffffffffffffff161415611931576040517f08c379a000000000000000000000000000000000000000000000000000000000815260040161192890612b57565b60405180910390fd5b61193a81610e11565b1561197a576040517f08c379a000000000000000000000000000000000000000000000000000000000815260040161197190612a57565b60405180910390fd5b61198660008383611541565b6001600360008473ffffffffffffffffffffffffffffffffffffffff1673ffffffffffffffffffffffffffffffffffffffff16815260200190815260200160002060008282546119d69190612d26565b92505081905550816002600083815260200190815260200160002060006101000a81548173ffffffffffffffffffffffffffffffffffffffff021916908373ffffffffffffffffffffffffffffffffffffffff160217905550808273ffffffffffffffffffffffffffffffffffffffff16600073ffffffffffffffffffffffffffffffffffffffff167fddf252ad1be2c89b69c2b068fc378daa952ba7f163c4a11628f55a4df523b3ef60405160405180910390a45050565b600080823b905060008111915050919050565b505050565b6008805490506009600083815260200190815260200160002081905550600881908060018154018082558091505060019003906000526020600020016000909190919091505550565b60006001611afd84610a54565b611b079190612d7c565b9050600060076000848152602001908152602001600020549050818114611bec576000600660008673ffffffffffffffffffffffffffffffffffffffff1673ffffffffffffffffffffffffffffffffffffffff168152602001908152602001600020600084815260200190815260200160002054905080600660008773ffffffffffffffffffffffffffffffffffffffff1673ffffffffffffffffffffffffffffffffffffffff168152602001908152602001600020600084815260200190815260200160002081905550816007600083815260200190815260200160002081905550505b6007600084815260200190815260200160002060009055600660008573ffffffffffffffffffffffffffffffffffffffff1673ffffffffffffffffffffffffffffffffffffffff16815260200190815260200160002060008381526020019081526020016000206000905550505050565b60006001600880549050611c719190612d7c565b9050600060096000848152602001908152602001600020549050600060088381548110611cc7577f4e487b7100000000000000000000000000000000000000000000000000000000600052603260045260246000fd5b906000526020600020015490508060088381548110611d0f577f4e487b7100000000000000000000000000000000000000000000000000000000600052603260045260246000fd5b906000526020600020018190555081600960008381526020019081526020016000208190555060096000858152602001908152602001600020600090556008805480611d84577f4e487b7100000000000000000000000000000000000000000000000000000000600052603160045260246000fd5b6001900381819060005260206000200160009055905550505050565b6000611dab83610a54565b905081600660008573ffffffffffffffffffffffffffffffffffffffff1673ffffffffffffffffffffffffffffffffffffffff168152602001908152602001600020600083815260200190815260200160002081905550806007600084815260200190815260200160002081905550505050565b828054611e2b90612e66565b90600052602060002090601f016020900481019282611e4d5760008555611e94565b82601f10611e6657805160ff1916838001178555611e94565b82800160010185558215611e94579182015b82811115611e93578251825591602001919060010190611e78565b5b509050611ea19190611ea5565b5090565b5b80821115611ebe576000816000905550600101611ea6565b5090565b6000611ed5611ed084612c83565b612c52565b905082815260208101848484011115611eed57600080fd5b611ef8848285612e24565b509392505050565b6000611f13611f0e84612cb3565b612c52565b905082815260208101848484011115611f2b57600080fd5b611f36848285612e24565b509392505050565b600081359050611f4d81612f36565b92915050565b600081359050611f6281612f4d565b92915050565b600081359050611f7781612f64565b92915050565b600081519050611f8c81612f64565b92915050565b600082601f830112611fa357600080fd5b8135611fb3848260208601611ec2565b91505092915050565b600082601f830112611fcd57600080fd5b8135611fdd848260208601611f00565b91505092915050565b600081359050611ff581612f7b565b92915050565b60006020828403121561200d57600080fd5b600061201b84828501611f3e565b91505092915050565b6000806040838503121561203757600080fd5b600061204585828601611f3e565b925050602061205685828601611f3e565b9150509250929050565b60008060006060848603121561207557600080fd5b600061208386828701611f3e565b935050602061209486828701611f3e565b92505060406120a586828701611fe6565b9150509250925092565b600080600080608085870312156120c557600080fd5b60006120d387828801611f3e565b94505060206120e487828801611f3e565b93505060406120f587828801611fe6565b925050606085013567ffffffffffffffff81111561211257600080fd5b61211e87828801611f92565b91505092959194509250565b6000806040838503121561213d57600080fd5b600061214b85828601611f3e565b925050602061215c85828601611f53565b9150509250929050565b6000806040838503121561217957600080fd5b600061218785828601611f3e565b925050602061219885828601611fe6565b9150509250929050565b6000602082840312156121b457600080fd5b60006121c284828501611f68565b91505092915050565b6000602082840312156121dd57600080fd5b60006121eb84828501611f7d565b91505092915050565b60006020828403121561220657600080fd5b600082013567ffffffffffffffff81111561222057600080fd5b61222c84828501611fbc565b91505092915050565b60006020828403121561224757600080fd5b600061225584828501611fe6565b91505092915050565b61226781612db0565b82525050565b61227681612dc2565b82525050565b600061228782612ce3565b6122918185612cf9565b93506122a1818560208601612e33565b6122aa81612f25565b840191505092915050565b60006122c082612cee565b6122ca8185612d0a565b93506122da818560208601612e33565b6122e381612f25565b840191505092915050565b60006122f982612cee565b6123038185612d1b565b9350612313818560208601612e33565b80840191505092915050565b600061232c602b83612d0a565b91507f455243373231456e756d657261626c653a206f776e657220696e646578206f7560008301527f74206f6620626f756e64730000000000000000000000000000000000000000006020830152604082019050919050565b6000612392603283612d0a565b91507f4552433732313a207472616e7366657220746f206e6f6e20455243373231526560008301527f63656976657220696d706c656d656e74657200000000000000000000000000006020830152604082019050919050565b60006123f8601c83612d0a565b91507f4552433732313a20746f6b656e20616c7265616479206d696e746564000000006000830152602082019050919050565b6000612438602483612d0a565b91507f4552433732313a207472616e7366657220746f20746865207a65726f2061646460008301527f72657373000000000000000000000000000000000000000000000000000000006020830152604082019050919050565b600061249e601983612d0a565b91507f4552433732313a20617070726f766520746f2063616c6c6572000000000000006000830152602082019050919050565b60006124de602c83612d0a565b91507f4552433732313a206f70657261746f7220717565727920666f72206e6f6e657860008301527f697374656e7420746f6b656e00000000000000000000000000000000000000006020830152604082019050919050565b6000612544601e83612d0a565b91507f54686520746f6b656e205552492073686f756c6420626520756e6971756500006000830152602082019050919050565b6000612584603883612d0a565b91507f4552433732313a20617070726f76652063616c6c6572206973206e6f74206f7760008301527f6e6572206e6f7220617070726f76656420666f7220616c6c00000000000000006020830152604082019050919050565b60006125ea602a83612d0a565b91507f4552433732313a2062616c616e636520717565727920666f7220746865207a6560008301527f726f2061646472657373000000000000000000000000000000000000000000006020830152604082019050919050565b6000612650602983612d0a565b91507f4552433732313a206f776e657220717565727920666f72206e6f6e657869737460008301527f656e7420746f6b656e00000000000000000000000000000000000000000000006020830152604082019050919050565b60006126b6602083612d0a565b91507f4552433732313a206d696e7420746f20746865207a65726f20616464726573736000830152602082019050919050565b60006126f6602c83612d0a565b91507f4552433732313a20617070726f76656420717565727920666f72206e6f6e657860008301527f697374656e7420746f6b656e00000000000000000000000000000000000000006020830152604082019050919050565b600061275c602983612d0a565b91507f4552433732313a207472616e73666572206f6620746f6b656e2074686174206960008301527f73206e6f74206f776e00000000000000000000000000000000000000000000006020830152604082019050919050565b60006127c2602f83612d0a565b91507f4552433732314d657461646174613a2055524920717565727920666f72206e6f60008301527f6e6578697374656e7420746f6b656e00000000000000000000000000000000006020830152604082019050919050565b6000612828602183612d0a565b91507f4552433732313a20617070726f76616c20746f2063757272656e74206f776e6560008301527f72000000000000000000000000000000000000000000000000000000000000006020830152604082019050919050565b600061288e603183612d0a565b91507f4552433732313a207472616e736665722063616c6c6572206973206e6f74206f60008301527f776e6572206e6f7220617070726f7665640000000000000000000000000000006020830152604082019050919050565b60006128f4602c83612d0a565b91507f455243373231456e756d657261626c653a20676c6f62616c20696e646578206f60008301527f7574206f6620626f756e647300000000000000000000000000000000000000006020830152604082019050919050565b61295681612e1a565b82525050565b600061296882846122ee565b915081905092915050565b6000602082019050612988600083018461225e565b92915050565b60006080820190506129a3600083018761225e565b6129b0602083018661225e565b6129bd604083018561294d565b81810360608301526129cf818461227c565b905095945050505050565b60006020820190506129ef600083018461226d565b92915050565b60006020820190508181036000830152612a0f81846122b5565b905092915050565b60006020820190508181036000830152612a308161231f565b9050919050565b60006020820190508181036000830152612a5081612385565b9050919050565b60006020820190508181036000830152612a70816123eb565b9050919050565b60006020820190508181036000830152612a908161242b565b9050919050565b60006020820190508181036000830152612ab081612491565b9050919050565b60006020820190508181036000830152612ad0816124d1565b9050919050565b60006020820190508181036000830152612af081612537565b9050919050565b60006020820190508181036000830152612b1081612577565b9050919050565b60006020820190508181036000830152612b30816125dd565b9050919050565b60006020820190508181036000830152612b5081612643565b9050919050565b60006020820190508181036000830152612b70816126a9565b9050919050565b60006020820190508181036000830152612b90816126e9565b9050919050565b60006020820190508181036000830152612bb08161274f565b9050919050565b60006020820190508181036000830152612bd0816127b5565b9050919050565b60006020820190508181036000830152612bf08161281b565b9050919050565b60006020820190508181036000830152612c1081612881565b9050919050565b60006020820190508181036000830152612c30816128e7565b9050919050565b6000602082019050612c4c600083018461294d565b92915050565b6000604051905081810181811067ffffffffffffffff82111715612c7957612c78612ef6565b5b8060405250919050565b600067ffffffffffffffff821115612c9e57612c9d612ef6565b5b601f19601f8301169050602081019050919050565b600067ffffffffffffffff821115612cce57612ccd612ef6565b5b601f19601f8301169050602081019050919050565b600081519050919050565b600081519050919050565b600082825260208201905092915050565b600082825260208201905092915050565b600081905092915050565b6000612d3182612e1a565b9150612d3c83612e1a565b9250827fffffffffffffffffffffffffffffffffffffffffffffffffffffffffffffffff03821115612d7157612d70612e98565b5b828201905092915050565b6000612d8782612e1a565b9150612d9283612e1a565b925082821015612da557612da4612e98565b5b828203905092915050565b6000612dbb82612dfa565b9050919050565b60008115159050919050565b60007fffffffff0000000000000000000000000000000000000000000000000000000082169050919050565b600073ffffffffffffffffffffffffffffffffffffffff82169050919050565b6000819050919050565b82818337600083830152505050565b60005b83811015612e51578082015181840152602081019050612e36565b83811115612e60576000848401525b50505050565b60006002820490506001821680612e7e57607f821691505b60208210811415612e9257612e91612ec7565b5b50919050565b7f4e487b7100000000000000000000000000000000000000000000000000000000600052601160045260246000fd5b7f4e487b7100000000000000000000000000000000000000000000000000000000600052602260045260246000fd5b7f4e487b7100000000000000000000000000000000000000000000000000000000600052604160045260246000fd5b6000601f19601f8301169050919050565b612f3f81612db0565b8114612f4a57600080fd5b50565b612f5681612dc2565b8114612f6157600080fd5b50565b612f6d81612dce565b8114612f7857600080fd5b50565b612f8481612e1a565b8114612f8f57600080fd5b5056fea26469706673582212203d7df56199d6f4582b8b8bbea1eb2ea42827a7b6367315704cca1fde20fab58f64736f6c63430008000033",
  "immutableReferences": {},
  "source": "// SPDX-License-Identifier: MIT\npragma solidity ^0.8.0;\n\nimport \"@openzeppelin/contracts/token/ERC721/ERC721.sol\";\nimport \"@openzeppelin/contracts/token/ERC721/extensions/ERC721Enumerable.sol\";\n\ncontract NFTCollection is ERC721, ERC721Enumerable {\n  string[] public tokenURIs;\n  mapping(string => bool) _tokenURIExists;\n  mapping(uint256 => string) _tokenIdToTokenURI;\n\n  constructor() ERC721(\"mTC Collection\", \"mTC\") {}\n\n  function _beforeTokenTransfer(\n    address from,\n    address to,\n    uint256 tokenId\n  ) internal override(ERC721, ERC721Enumerable) {\n    super._beforeTokenTransfer(from, to, tokenId);\n  }\n\n  function supportsInterface(bytes4 interfaceId)\n    public\n    view\n    override(ERC721, ERC721Enumerable)\n    returns (bool)\n  {\n    return super.supportsInterface(interfaceId);\n  }\n\n  function tokenURI(uint256 tokenId)\n    public\n    view\n    override\n    returns (string memory)\n  {\n    require(\n      _exists(tokenId),\n      \"ERC721Metadata: URI query for nonexistent token\"\n    );\n    return _tokenIdToTokenURI[tokenId];\n  }\n\n  function safeMint(string memory _tokenURI) public {\n    require(!_tokenURIExists[_tokenURI], \"The token URI should be unique\");\n    tokenURIs.push(_tokenURI);\n    uint256 _id = tokenURIs.length;\n    _tokenIdToTokenURI[_id] = _tokenURI;\n    _safeMint(msg.sender, _id);\n    _tokenURIExists[_tokenURI] = true;\n  }\n}\n",
  "sourcePath": "/home/sylvester/mkkk/contracts/NFTCollection.sol",
  "compiler": {
    "name": "solc",
    "version": "0.8.0+commit.c7dfd78e.Emscripten.clang"
  },
  "schemaVersion": "3.4.3",
  "updatedAt": "2021-11-29T23:34:28.592Z",
  "networkType": "ethereum",
  "devdoc": {
    "kind": "dev",
    "methods": {
      "approve(address,uint256)": {
        "details": "See {IERC721-approve}."
      },
      "balanceOf(address)": {
        "details": "See {IERC721-balanceOf}."
      },
      "getApproved(uint256)": {
        "details": "See {IERC721-getApproved}."
      },
      "isApprovedForAll(address,address)": {
        "details": "See {IERC721-isApprovedForAll}."
      },
      "name()": {
        "details": "See {IERC721Metadata-name}."
      },
      "ownerOf(uint256)": {
        "details": "See {IERC721-ownerOf}."
      },
      "safeTransferFrom(address,address,uint256)": {
        "details": "See {IERC721-safeTransferFrom}."
      },
      "safeTransferFrom(address,address,uint256,bytes)": {
        "details": "See {IERC721-safeTransferFrom}."
      },
      "setApprovalForAll(address,bool)": {
        "details": "See {IERC721-setApprovalForAll}."
      },
      "symbol()": {
        "details": "See {IERC721Metadata-symbol}."
      },
      "tokenByIndex(uint256)": {
        "details": "See {IERC721Enumerable-tokenByIndex}."
      },
      "tokenOfOwnerByIndex(address,uint256)": {
        "details": "See {IERC721Enumerable-tokenOfOwnerByIndex}."
      },
      "tokenURI(uint256)": {
        "details": "See {IERC721Metadata-tokenURI}."
      },
      "totalSupply()": {
        "details": "See {IERC721Enumerable-totalSupply}."
      },
      "transferFrom(address,address,uint256)": {
        "details": "See {IERC721-transferFrom}."
      }
    },
    "version": 1
  },
  "userdoc": {
    "kind": "user",
    "methods": {},
    "version": 1
  }
}