{
  "contractName": "NFTMarketplace",
  "abi": [
    {
      "inputs": [
        {
          "internalType": "address",
          "name": "_nftCollection",
          "type": "address"
        }
      ],
      "stateMutability": "nonpayable",
      "type": "constructor"
    },
    {
      "anonymous": false,
      "inputs": [
        {
          "indexed": false,
          "internalType": "address",
          "name": "user",
          "type": "address"
        },
        {
          "indexed": false,
          "internalType": "uint256",
          "name": "amount",
          "type": "uint256"
        }
      ],
      "name": "ClaimFunds",
      "type": "event"
    },
    {
      "anonymous": false,
      "inputs": [
        {
          "indexed": false,
          "internalType": "uint256",
          "name": "offerId",
          "type": "uint256"
        },
        {
          "indexed": false,
          "internalType": "uint256",
          "name": "id",
          "type": "uint256"
        },
        {
          "indexed": false,
          "internalType": "address",
          "name": "user",
          "type": "address"
        },
        {
          "indexed": false,
          "internalType": "uint256",
          "name": "price",
          "type": "uint256"
        },
        {
          "indexed": false,
          "internalType": "bool",
          "name": "fulfilled",
          "type": "bool"
        },
        {
          "indexed": false,
          "internalType": "bool",
          "name": "cancelled",
          "type": "bool"
        }
      ],
      "name": "Offer",
      "type": "event"
    },
    {
      "anonymous": false,
      "inputs": [
        {
          "indexed": false,
          "internalType": "uint256",
          "name": "offerId",
          "type": "uint256"
        },
        {
          "indexed": false,
          "internalType": "uint256",
          "name": "id",
          "type": "uint256"
        },
        {
          "indexed": false,
          "internalType": "address",
          "name": "owner",
          "type": "address"
        }
      ],
      "name": "OfferCancelled",
      "type": "event"
    },
    {
      "anonymous": false,
      "inputs": [
        {
          "indexed": false,
          "internalType": "uint256",
          "name": "offerId",
          "type": "uint256"
        },
        {
          "indexed": false,
          "internalType": "uint256",
          "name": "id",
          "type": "uint256"
        },
        {
          "indexed": false,
          "internalType": "address",
          "name": "newOwner",
          "type": "address"
        }
      ],
      "name": "OfferFilled",
      "type": "event"
    },
    {
      "stateMutability": "nonpayable",
      "type": "fallback"
    },
    {
      "inputs": [],
      "name": "offerCount",
      "outputs": [
        {
          "internalType": "uint256",
          "name": "",
          "type": "uint256"
        }
      ],
      "stateMutability": "view",
      "type": "function",
      "constant": true
    },
    {
      "inputs": [
        {
          "internalType": "uint256",
          "name": "",
          "type": "uint256"
        }
      ],
      "name": "offers",
      "outputs": [
        {
          "internalType": "uint256",
          "name": "offerId",
          "type": "uint256"
        },
        {
          "internalType": "uint256",
          "name": "id",
          "type": "uint256"
        },
        {
          "internalType": "address",
          "name": "user",
          "type": "address"
        },
        {
          "internalType": "uint256",
          "name": "price",
          "type": "uint256"
        },
        {
          "internalType": "bool",
          "name": "fulfilled",
          "type": "bool"
        },
        {
          "internalType": "bool",
          "name": "cancelled",
          "type": "bool"
        }
      ],
      "stateMutability": "view",
      "type": "function",
      "constant": true
    },
    {
      "inputs": [
        {
          "internalType": "address",
          "name": "",
          "type": "address"
        }
      ],
      "name": "userFunds",
      "outputs": [
        {
          "internalType": "uint256",
          "name": "",
          "type": "uint256"
        }
      ],
      "stateMutability": "view",
      "type": "function",
      "constant": true
    },
    {
      "inputs": [
        {
          "internalType": "uint256",
          "name": "_id",
          "type": "uint256"
        },
        {
          "internalType": "uint256",
          "name": "_price",
          "type": "uint256"
        }
      ],
      "name": "makeOffer",
      "outputs": [],
      "stateMutability": "nonpayable",
      "type": "function"
    },
    {
      "inputs": [
        {
          "internalType": "uint256",
          "name": "_offerId",
          "type": "uint256"
        }
      ],
      "name": "fillOffer",
      "outputs": [],
      "stateMutability": "payable",
      "type": "function",
      "payable": true
    },
    {
      "inputs": [
        {
          "internalType": "uint256",
          "name": "_offerId",
          "type": "uint256"
        }
      ],
      "name": "cancelOffer",
      "outputs": [],
      "stateMutability": "nonpayable",
      "type": "function"
    },
    {
      "inputs": [],
      "name": "claimFunds",
      "outputs": [],
      "stateMutability": "nonpayable",
      "type": "function"
    }
  ],
  "bytecode": "0x60806040523480156200001157600080fd5b506040516200151838038062001518833981810160405281019062000037919062000096565b80600360006101000a81548173ffffffffffffffffffffffffffffffffffffffff021916908373ffffffffffffffffffffffffffffffffffffffff1602179055505062000110565b6000815190506200009081620000f6565b92915050565b600060208284031215620000a957600080fd5b6000620000b9848285016200007f565b91505092915050565b6000620000cf82620000d6565b9050919050565b600073ffffffffffffffffffffffffffffffffffffffff82169050919050565b6200010181620000c2565b81146200010d57600080fd5b50565b6113f880620001206000396000f3fe6080604052600436106100745760003560e01c806385dba8611161004e57806385dba861146101185780638a72ea6a14610134578063ac30777314610176578063ef706adf1461018d57610075565b806305b7cdd3146100875780631115c24d146100b05780638387c6e1146100db57610075565b5b34801561008157600080fd5b50600080fd5b34801561009357600080fd5b506100ae60048036038101906100a99190610c61565b6101b6565b005b3480156100bc57600080fd5b506100c56103ad565b6040516100d291906111ba565b60405180910390f35b3480156100e757600080fd5b5061010260048036038101906100fd9190610c0f565b6103b3565b60405161010f91906111ba565b60405180910390f35b610132600480360381019061012d9190610c38565b6103cb565b005b34801561014057600080fd5b5061015b60048036038101906101569190610c38565b610714565b60405161016d9695949392919061120c565b60405180910390f35b34801561018257600080fd5b5061018b61078a565b005b34801561019957600080fd5b506101b460048036038101906101af9190610c38565b610951565b005b600360009054906101000a900473ffffffffffffffffffffffffffffffffffffffff1673ffffffffffffffffffffffffffffffffffffffff166323b872dd3330856040518463ffffffff1660e01b81526004016102159392919061103a565b600060405180830381600087803b15801561022f57600080fd5b505af1158015610243573d6000803e3d6000fd5b505050506000808154809291906102599061131c565b91905055506040518060c0016040528060005481526020018381526020013373ffffffffffffffffffffffffffffffffffffffff168152602001828152602001600015158152602001600015158152506001600080548152602001908152602001600020600082015181600001556020820151816001015560408201518160020160006101000a81548173ffffffffffffffffffffffffffffffffffffffff021916908373ffffffffffffffffffffffffffffffffffffffff1602179055506060820151816003015560808201518160040160006101000a81548160ff02191690831515021790555060a08201518160040160016101000a81548160ff0219169083151502179055509050507f93e711896d4ef527d199d7e101922e20f918cbb248a0fb0977c52fda24aa1f1d6000548333846000806040516103a19695949392919061120c565b60405180910390a15050565b60005481565b60026020528060005260406000206000915090505481565b600060016000838152602001908152602001600020905081816000015414610428576040517f08c379a000000000000000000000000000000000000000000000000000000000815260040161041f9061117a565b60405180910390fd5b3373ffffffffffffffffffffffffffffffffffffffff168160020160009054906101000a900473ffffffffffffffffffffffffffffffffffffffff1673ffffffffffffffffffffffffffffffffffffffff1614156104bb576040517f08c379a00000000000000000000000000000000000000000000000000000000081526004016104b29061109a565b60405180910390fd5b8060040160009054906101000a900460ff161561050d576040517f08c379a00000000000000000000000000000000000000000000000000000000081526004016105049061111a565b60405180910390fd5b8060040160019054906101000a900460ff161561055f576040517f08c379a0000000000000000000000000000000000000000000000000000000008152600401610556906110ba565b60405180910390fd5b806003015434146105a5576040517f08c379a000000000000000000000000000000000000000000000000000000000815260040161059c9061113a565b60405180910390fd5b600360009054906101000a900473ffffffffffffffffffffffffffffffffffffffff1673ffffffffffffffffffffffffffffffffffffffff166323b872dd303384600101546040518463ffffffff1660e01b81526004016106089392919061103a565b600060405180830381600087803b15801561062257600080fd5b505af1158015610636573d6000803e3d6000fd5b5050505060018160040160006101000a81548160ff02191690831515021790555034600260008360020160009054906101000a900473ffffffffffffffffffffffffffffffffffffffff1673ffffffffffffffffffffffffffffffffffffffff1673ffffffffffffffffffffffffffffffffffffffff16815260200190815260200160002060008282546106ca919061127e565b925050819055507fd9157c065213ada613694e84b1e27fe2efd62d85c6b82bd6c842a4999491e72a82826001015433604051610708939291906111d5565b60405180910390a15050565b60016020528060005260406000206000915090508060000154908060010154908060020160009054906101000a900473ffffffffffffffffffffffffffffffffffffffff16908060030154908060040160009054906101000a900460ff16908060040160019054906101000a900460ff16905086565b6000600260003373ffffffffffffffffffffffffffffffffffffffff1673ffffffffffffffffffffffffffffffffffffffff168152602001908152602001600020541161080c576040517f08c379a0000000000000000000000000000000000000000000000000000000008152600401610803906110fa565b60405180910390fd5b3373ffffffffffffffffffffffffffffffffffffffff166108fc600260003373ffffffffffffffffffffffffffffffffffffffff1673ffffffffffffffffffffffffffffffffffffffff168152602001908152602001600020549081150290604051600060405180830381858888f19350505050158015610891573d6000803e3d6000fd5b507f4f0554190111f93f8c2ccef2cc41473f187d7f29ff5a5c308ca41f9dfe4e989a33600260003373ffffffffffffffffffffffffffffffffffffffff1673ffffffffffffffffffffffffffffffffffffffff16815260200190815260200160002054604051610902929190611071565b60405180910390a16000600260003373ffffffffffffffffffffffffffffffffffffffff1673ffffffffffffffffffffffffffffffffffffffff16815260200190815260200160002081905550565b6000600160008381526020019081526020016000209050818160000154146109ae576040517f08c379a00000000000000000000000000000000000000000000000000000000081526004016109a59061117a565b60405180910390fd5b3373ffffffffffffffffffffffffffffffffffffffff168160020160009054906101000a900473ffffffffffffffffffffffffffffffffffffffff1673ffffffffffffffffffffffffffffffffffffffff1614610a40576040517f08c379a0000000000000000000000000000000000000000000000000000000008152600401610a379061119a565b60405180910390fd5b600015158160040160009054906101000a900460ff16151514610a98576040517f08c379a0000000000000000000000000000000000000000000000000000000008152600401610a8f906110da565b60405180910390fd5b600015158160040160019054906101000a900460ff16151514610af0576040517f08c379a0000000000000000000000000000000000000000000000000000000008152600401610ae79061115a565b60405180910390fd5b600360009054906101000a900473ffffffffffffffffffffffffffffffffffffffff1673ffffffffffffffffffffffffffffffffffffffff166323b872dd303384600101546040518463ffffffff1660e01b8152600401610b539392919061103a565b600060405180830381600087803b158015610b6d57600080fd5b505af1158015610b81573d6000803e3d6000fd5b5050505060018160040160016101000a81548160ff0219169083151502179055507f5b166b4d0498ff8c4719999cb6154c5d197e6f020f9fbfcf9d347f84576cfab782826001015433604051610bd9939291906111d5565b60405180910390a15050565b600081359050610bf481611394565b92915050565b600081359050610c09816113ab565b92915050565b600060208284031215610c2157600080fd5b6000610c2f84828501610be5565b91505092915050565b600060208284031215610c4a57600080fd5b6000610c5884828501610bfa565b91505092915050565b60008060408385031215610c7457600080fd5b6000610c8285828601610bfa565b9250506020610c9385828601610bfa565b9150509250929050565b610ca6816112d4565b82525050565b610cb5816112e6565b82525050565b6000610cc860258361126d565b91507f546865206f776e6572206f6620746865206f666665722063616e6e6f7420666960008301527f6c6c2069740000000000000000000000000000000000000000000000000000006020830152604082019050919050565b6000610d2e60258361126d565b91507f412063616e63656c6c6564206f666665722063616e6e6f742062652066756c6660008301527f696c6c65640000000000000000000000000000000000000000000000000000006020830152604082019050919050565b6000610d9460258361126d565b91507f412066756c66696c6c6564206f666665722063616e6e6f742062652063616e6360008301527f656c6c65640000000000000000000000000000000000000000000000000000006020830152604082019050919050565b6000610dfa60248361126d565b91507f54686973207573657220686173206e6f2066756e647320746f20626520636c6160008301527f696d6564000000000000000000000000000000000000000000000000000000006020830152604082019050919050565b6000610e6060228361126d565b91507f416e206f666665722063616e6e6f742062652066756c66696c6c65642074776960008301527f63650000000000000000000000000000000000000000000000000000000000006020830152604082019050919050565b6000610ec6602e8361126d565b91507f5468652045544820616d6f756e742073686f756c64206d61746368207769746860008301527f20746865204e46542050726963650000000000000000000000000000000000006020830152604082019050919050565b6000610f2c60228361126d565b91507f416e206f666665722063616e6e6f742062652063616e63656c6c65642074776960008301527f63650000000000000000000000000000000000000000000000000000000000006020830152604082019050919050565b6000610f9260148361126d565b91507f546865206f66666572206d7573742065786973740000000000000000000000006000830152602082019050919050565b6000610fd2602b8361126d565b91507f546865206f666665722063616e206f6e6c792062652063616e63656c6564206260008301527f7920746865206f776e65720000000000000000000000000000000000000000006020830152604082019050919050565b61103481611312565b82525050565b600060608201905061104f6000830186610c9d565b61105c6020830185610c9d565b611069604083018461102b565b949350505050565b60006040820190506110866000830185610c9d565b611093602083018461102b565b9392505050565b600060208201905081810360008301526110b381610cbb565b9050919050565b600060208201905081810360008301526110d381610d21565b9050919050565b600060208201905081810360008301526110f381610d87565b9050919050565b6000602082019050818103600083015261111381610ded565b9050919050565b6000602082019050818103600083015261113381610e53565b9050919050565b6000602082019050818103600083015261115381610eb9565b9050919050565b6000602082019050818103600083015261117381610f1f565b9050919050565b6000602082019050818103600083015261119381610f85565b9050919050565b600060208201905081810360008301526111b381610fc5565b9050919050565b60006020820190506111cf600083018461102b565b92915050565b60006060820190506111ea600083018661102b565b6111f7602083018561102b565b6112046040830184610c9d565b949350505050565b600060c082019050611221600083018961102b565b61122e602083018861102b565b61123b6040830187610c9d565b611248606083018661102b565b6112556080830185610cac565b61126260a0830184610cac565b979650505050505050565b600082825260208201905092915050565b600061128982611312565b915061129483611312565b9250827fffffffffffffffffffffffffffffffffffffffffffffffffffffffffffffffff038211156112c9576112c8611365565b5b828201905092915050565b60006112df826112f2565b9050919050565b60008115159050919050565b600073ffffffffffffffffffffffffffffffffffffffff82169050919050565b6000819050919050565b600061132782611312565b91507fffffffffffffffffffffffffffffffffffffffffffffffffffffffffffffffff82141561135a57611359611365565b5b600182019050919050565b7f4e487b7100000000000000000000000000000000000000000000000000000000600052601160045260246000fd5b61139d816112d4565b81146113a857600080fd5b50565b6113b481611312565b81146113bf57600080fd5b5056fea264697066735822122001ad3da2fefe806eaccab73ab1f611836956b31fded951067fb62648a0a67aff64736f6c63430008000033",
  "immutableReferences": {},
  "source": "// SPDX-License-Identifier: MIT\npragma solidity ^0.8.0;\n\nimport \"./NFTCollection.sol\";\n\ncontract NFTMarketplace {\n  uint256 public offerCount;\n  mapping(uint256 => _Offer) public offers;\n  mapping(address => uint256) public userFunds;\n  NFTCollection nftCollection;\n\n  struct _Offer {\n    uint256 offerId;\n    uint256 id;\n    address user;\n    uint256 price;\n    bool fulfilled;\n    bool cancelled;\n  }\n\n  event Offer(\n    uint256 offerId,\n    uint256 id,\n    address user,\n    uint256 price,\n    bool fulfilled,\n    bool cancelled\n  );\n\n  event OfferFilled(uint256 offerId, uint256 id, address newOwner);\n  event OfferCancelled(uint256 offerId, uint256 id, address owner);\n  event ClaimFunds(address user, uint256 amount);\n\n  constructor(address _nftCollection) {\n    nftCollection = NFTCollection(_nftCollection);\n  }\n\n  function makeOffer(uint256 _id, uint256 _price) public {\n    nftCollection.transferFrom(msg.sender, address(this), _id);\n    offerCount++;\n    offers[offerCount] = _Offer(\n      offerCount,\n      _id,\n      msg.sender,\n      _price,\n      false,\n      false\n    );\n    emit Offer(offerCount, _id, msg.sender, _price, false, false);\n  }\n\n  function fillOffer(uint256 _offerId) public payable {\n    _Offer storage _offer = offers[_offerId];\n    require(_offer.offerId == _offerId, \"The offer must exist\");\n    require(_offer.user != msg.sender, \"The owner of the offer cannot fill it\");\n    require(!_offer.fulfilled, \"An offer cannot be fulfilled twice\");\n    require(!_offer.cancelled, \"A cancelled offer cannot be fulfilled\");\n    require(\n      msg.value == _offer.price,\n      \"The ETH amount should match with the NFT Price\"\n    );\n    nftCollection.transferFrom(address(this), msg.sender, _offer.id);\n    _offer.fulfilled = true;\n    userFunds[_offer.user] += msg.value;\n    emit OfferFilled(_offerId, _offer.id, msg.sender);\n  }\n\n  function cancelOffer(uint256 _offerId) public {\n    _Offer storage _offer = offers[_offerId];\n    require(_offer.offerId == _offerId, \"The offer must exist\");\n    require(\n      _offer.user == msg.sender,\n      \"The offer can only be canceled by the owner\"\n    );\n    require(_offer.fulfilled == false, \"A fulfilled offer cannot be cancelled\");\n    require(_offer.cancelled == false, \"An offer cannot be cancelled twice\");\n    nftCollection.transferFrom(address(this), msg.sender, _offer.id);\n    _offer.cancelled = true;\n    emit OfferCancelled(_offerId, _offer.id, msg.sender);\n  }\n\n  function claimFunds() public {\n    require(userFunds[msg.sender] > 0, \"This user has no funds to be claimed\");\n    payable(msg.sender).transfer(userFunds[msg.sender]);\n    emit ClaimFunds(msg.sender, userFunds[msg.sender]);\n    userFunds[msg.sender] = 0;\n  }\n\n  // Fallback: reverts if Ether is sent to this smart-contract by mistake\n  fallback() external {\n    revert();\n  }\n}\n",
  "sourcePath": "/home/sylvester/mkkk/contracts/NFTMarketplace.sol",
  "compiler": {
    "name": "solc",
    "version": "0.8.0+commit.c7dfd78e.Emscripten.clang"
  },
  "schemaVersion": "3.4.3",
  "updatedAt": "2021-11-29T23:34:28.605Z",
  "networkType": "ethereum",
  "devdoc": {
    "kind": "dev",
    "methods": {},
    "version": 1
  },
  "userdoc": {
    "kind": "user",
    "methods": {},
    "version": 1
  }
}